:1000000019C033C032C0F8C230C02FC02EC02DC0BE
:100010002CC02BC02AC029C028C0B7C126C025C00B
:1000200024C027C322C021C020C01FC01EC01DC0C5
:100030001CC01BC011241FBECFEFD4E0DEBFCDBF5C
:1000400012E0A0E0B1E0EEEEF6E002C005900D9205
:10005000A839B107D9F714E0A8E9B2E001C01D92B0
:10006000A13AB107E1F739D340C3CACF579A5F9A93
:1000700087B18F6387B988B18F6388B98AB18F637D
:100080008AB98BB18BB9569A5E9A579A5F9A109239
:1000900080001092820081E080936F0080E090E009
:1000A000FC01E556FD4F1082FC01E556FC4F108225
:1000B000019621E08030920799F78BE992E09093C6
:1000C0009A02809399028BE993E090939C04809329
:1000D0009B04109298021BB818B880E22FE390ECB2
:1000E0001BB828B932E43A95F1F700C098B932E468
:1000F0003A95F1F700C0815099F780E48BB983EF0E
:1001000091E00197F1F700C000001BB85F980895D7
:100110001BB8A0919902B0919A0280919802E0E9EF
:10012000F2E0E80FF11D8081A80FB11D18B8FD01A4
:1001300081918BB900008FE388B900C0000018B826
:1001400011969C919BB9000088B9DF01119600C0FF
:10015000000018B891819BB9000088B9FD01319663
:1001600000C0000018B811969C919BB9000088B996
:10017000DF01119600C0000018B891819BB9000002
:1001800088B9FD01319600C0000018B811969C9105
:100190009BB9000088B9DF01119600C0000018B8B3
:1001A00091819BB9000088B9FD01319600C0000023
:1001B00018B811969C919BB9000088B9DF0111967F
:1001C00000C0000018B891819BB9000088B9FD01FA
:1001D000319600C0000018B811969C919BB90000A0
:1001E00088B9DF01119600C0000018B891819BB951
:1001F000000088B9FD01319600C0000018B81196C2
:100200009C919BB9000088B9DF01119600C00000E5
:1002100018B891819BB9000088B9FD01319600C0E2
:10022000000018B811969C919BB9000088B9DF01B5
:10023000119600C0000018B891819BB9000088B9E0
:10024000FD01319600C0000018B811969C919BB931
:10025000000088B9DF01119600C0000018B8918134
:100260009BB9000088B9FD01319600C0000018B8A4
:1002700011969C919BB9000088B9DF01119600C0CE
:10028000000018B891819BB9000088B9FD01319632
:1002900000C0000018B811969C919BB9000088B965
:1002A000DF01119600C0000018B891819BB90000D1
:1002B00088B9FD01319600C0000018B811969C91D4
:1002C0009BB9000088B9DF01119600C0000018B882
:1002D00091819BB9000088B9FD01319600C00000F2
:1002E00018B811969C919BB9000088B9DF0111964E
:1002F00000C0000018B891819BB9000088B9FD01C9
:10030000319600C0000018B811969C919BB900006E
:1003100088B9DF01119600C0000018B891819BB91F
:10032000000088B9FD01319600C0000018B8119690
:100330009C919BB9000088B9DF01119600C00000B4
:1003400018B891819BB9000088B9FD01319600C0B1
:10035000000018B811969C919BB9000088B9DF0184
:10036000119600C0000018B891819BB9000088B9AF
:1003700000C0000018B811969C9111979BB900001D
:1003800088B900C0000018B808951F920F920FB6E8
:100390000F9211242F933F934F935F936F937F930B
:1003A0008F939F93AF93BF93EF93FF932091980206
:1003B00010928100822F90E0FC01E050FF4F3081CD
:1003C00030938500885F9E4FFC018081809384007C
:1003D000822F8F5F883008F080E08093980280E45D
:1003E0008BB982E08093810093DEFF91EF91BF9102
:1003F000AF919F918F917F916F915F914F913F91BD
:100400002F910F900FBE0F901F901895CF93DF93F1
:1004100070E0FB01E05FFE4F2081322F3095E091CC
:100420009B04F0919C0460537E4FDB019C91E90F8B
:10043000F11D982F80FF3FC04081422B4083EF0188
:10044000A09691FF3FC040A1422B40A3DE019096B1
:1004500092FF3FC048A1422B48A3FD01B09693FFF5
:100460003FC090964C919097422B90964C93DF0111
:10047000909694FF3FC040A1422B40A3FD01B0964F
:1004800095FF3FC090964C919097422B90964C933D
:10049000DF01909696FF3FC090A1922B90A387FD1D
:1004A0003FC090968C919097832390968C939097D1
:1004B000DF91CF910895408143234083EF01A096BF
:1004C00091FDC1CF40A1432340A3DE01909692FD50
:1004D000C1CF48A1432348A3FD01B09693FDC1CFEE
:1004E00090964C919097432390964C93DF01909671
:1004F00094FDC1CF40A1432340A3FD01B09695FDDB
:10050000C1CF90964C919097432390964C93DF01E6
:10051000909696FDC1CF90A1932390A387FFC1CF62
:1005200090968C919097822B90968C939097DF91D8
:10053000CF9108958091990290919A0222E08B398F
:10054000920769F08BE992E090939A028093990266
:100550008BE993E090939C0480939B0408952BE98E
:1005600033E030939A022093990290939C048093F5
:100570009B04089582E08093810008951092810089
:100580001092980280919802E0E0F1E0E80FF11DEE
:1005900080818093850080919802E8E0F1E0E80F87
:1005A000F11D8081809384000895249A85B185B9D6
:1005B00080E48CBD1EBC1092A00410929F04109287
:1005C0009E048DB58EB5089584B184B9EBE6F0E054
:1005D000808182608083E8E6F0E0808181608083B2
:1005E00010929D0408951092A00410929F041092FE
:1005F0009E048DB58EB508951F920F920FB60F927F
:1006000011248F9319990BC08CB58F778CBD1092E4
:100610009D048F910F900FBE0F901F9018958DB570
:100620008EB58093A00481E080939E048CB5806891
:100630008CBD8F910F900FBE0F901F9018958091D9
:100640009E04813009F0089580919F04803C30F031
:1006500071DF10929F0410929E0408958091A0046F
:1006600060919F04D3DE80919F048F5F80939F04ED
:10067000F2CF1F920F920FB60F9211242F933F9338
:100680004F935F936F937F938F939F93AF93BF939A
:10069000EF93FF931092A00410929F0410929E0477
:1006A0008DB58EB580919D048230A1F082E080935B
:1006B0009D04FF91EF91BF91AF919F918F917F9199
:1006C0006F915F914F913F912F910F900FBE0F90BF
:1006D0001F90189553DF4EDFE9CF67DF75DFC6DC6B
:0E06E000789448DFACDFABDFFDCFF894FFCF9E
:1006EE00E6F3F9FCFEFFFFFFFF7FBFDF6F379BCD09
:1006FE00041001041001041001041001041001047F
:10070E001001041001041001041001041001041062
:10071E000104100104100104100104100104100161
:10072E00041001041001041001041001041001044E
:10073E001001041001041001041001041001041032
:10074E000104100104100104100104100104100131
:10075E0008200208200208200208200208200208B1
:10076E002002082002082002082002082002082089
:10077E000208200208200208200208200208200297
:10078E000820020820020820020820020820020881
:10079E002002082002082002082002082002082059
:1007AE000208200208200208200208200208200267
:1007BE001313131717171B1B1B1F1F1F03030307EF
:1007CE0007070B0B0B0F0F0F1212121616161A1A13
:1007DE001A1E1E1E0202020606060A0A0A0E0E0E37
:1007EE001111111515151919191D1D1D01010105DF
:1007FE0005050909090D0D0D101010141414181803
:10080E00181C1C1C0000000404040808080C0C0C26
:10081E001313131717171B1B1B1F1F1F030303078E
:10082E0007070B0B0B0F0F0F1212121616161A1AB2
:10083E001A1E1E1E0202020606060A0A0A0E0E0ED6
:10084E001111111515151919191D1D1D010101057E
:10085E0005050909090D0D0D1010101414141818A2
:10086E00181C1C1C0000000404040808080C0C0CC6
:08087E00E0C0A08060402000F2
:00000001FF
